:020000040800F2
:100000000000022029290008C1080008C3080008D0
:10001000C5080008C7080008C9080008000000005B
:10002000000000000000000000000000A125000802
:10003000CB0800080000000041260008CD08000899
:100040007929000879290008792900087929000808
:100050007929000879290008E308000879290008AF
:1000600079290008792900087929000879290008E8
:1000700079290008792900087929000879290008D8
:1000800079290008792900087929000879290008C8
:1000900079290008792900087929000879290008B8
:1000A00079290008792900087929000879290008A8
:1000B0007929000879290008792900087929000898
:1000C0007929000879290008792900087929000888
:1000D0007929000879290008792900087929000878
:1000E0007929000879290008792900087929000868
:1000F0007929000879290008792900087929000858
:100100007929000879290008792900087929000847
:100110007929000879290008792900087929000837
:100120007929000879290008792900087929000827
:100130007929000879290008792900087929000817
:100140007929000879290008792900087929000807
:1001500079290008792900087929000879290008F7
:1001600079290008792900087929000879290008E7
:100170007929000879290008792900080000000081
:08018000792900087929000823
:100190000348044B834202D0034B03B11847704716
:1001A000140000201400002000000000054806494B
:1001B0000B1AD90F01EBA301491002D0034B03B175
:1001C00018477047140000201400002000000000B1
:1001D00010B5064C237843B9FFF7DAFF044B13B18F
:1001E0000448AFF300800123237010BD14000020E9
:1001F000000000007C29000808B5044B1BB104492D
:100200000448AFF30080BDE80840CFE700000000DD
:10021000180000207C29000870B50D4E0D4D761B8E
:10022000B61006D00024013455F8043B9847A64286
:10023000F9D1094E094D761B02F0A0FBB61006D08D
:100240000024013455F8043B9847A642F9D170BD0B
:10025000CC290008CC290008D0290008CC290008A6
:10026000844641EA000313F003036DD1403A41D3C1
:1002700051F8043B40F8043B51F8043B40F8043B80
:1002800051F8043B40F8043B51F8043B40F8043B70
:1002900051F8043B40F8043B51F8043B40F8043B60
:1002A00051F8043B40F8043B51F8043B40F8043B50
:1002B00051F8043B40F8043B51F8043B40F8043B40
:1002C00051F8043B40F8043B51F8043B40F8043B30
:1002D00051F8043B40F8043B51F8043B40F8043B20
:1002E00051F8043B40F8043B51F8043B40F8043B10
:1002F000403ABDD2303211D351F8043B40F8043BB0
:1003000051F8043B40F8043B51F8043B40F8043BEF
:1003100051F8043B40F8043B103AEDD20C3205D3BF
:1003200051F8043B40F8043B043AF9D2043208D0B7
:10033000D2071CBF11F8013B00F8013B01D30B8829
:1003400003806046704700BF082A13D38B078DD007
:1003500010F003038AD0C3F10403D21ADB071CBFD9
:1003600011F8013B00F8013B80D331F8023B20F843
:10037000023B7BE7043AD9D3013A11F8013B00F87C
:10038000013BF9D20B7803704B7843708B78837004
:1003900060467047F0B4860746D0541E002A3CD011
:1003A000CAB2034602E014F1FF3436D303F8012B3E
:1003B0009D07F8D1032C29D9CDB245EA05250F2C8C
:1003C00045EA054533D9A4F11006360903F12007A3
:1003D00007EB061703F1100242E9045542E9025502
:1003E0001032BA42F8D1721C14F00C0F03EB021257
:1003F00004F00F0613D0331F23F003030433134418
:1004000042F8045B9342FBD106F003042CB1C9B25D
:100410001C4403F8011B9C42FBD1F0BC70473446DE
:100420001346002CF3D1F8E714460346C2E71A46F8
:100430002646E0E753B94AB9002908BF00281CBF87
:100440004FF0FF314FF0FF3000F06EB9ADF1080C06
:100450006DE904CE00F006F8DDF804E0DDE90223E2
:1004600004B070472DE9F047089D04468C46002BE8
:1004700040F083808A42174647D9B2FA82F242B1ED
:10048000C2F1200024FA00F09140974040EA010CAC
:1004900094404FEA1748230CBCFBF8F61FFA87FE7E
:1004A00008FB16C143EA014306FB0EF1994209D944
:1004B000FB1806F1FF3080F01981994240F2168155
:1004C000023E3B445B1AA4B2B3FBF8F008FB1033C6
:1004D00044EA034400FB0EFEA64509D93C1900F18D
:1004E000FF3380F00581A64540F2028102383C448A
:1004F00040EA0640A4EB0E0400261DB1D4400023C0
:10050000C5E900433146BDE8F08702B9FFDEB2FA23
:1005100082F2002A50D1CB1B4FEA174E1FFA87F800
:100520000126B3FBFEFC210C0EFB1C3341EA034108
:1005300008FB0CF38B4207D979180CF1FF3002D27B
:100540008B4200F2E9808446C91AA3B2B1FBFEF0E7
:100550000EFB101143EA014408FB00F8A04507D93F
:100560003C1900F1FF3302D2A04500F2D9801846B1
:10057000A4EB080440EA0C40BFE78B4209D9002DE8
:1005800000F0B1800026C5E9000130463146BDE8E3
:10059000F087B3FA83F6002E4AD18B4202D382420F
:1005A00000F2B880841A61EB030101208C46002D13
:1005B000A8D0C5E9004CA5E7C2F1200320FA03F654
:1005C000974001FA02F04FEA174ED9403043030C2E
:1005D000B1FBFEF61FFA87F80EFB161143EA014342
:1005E00006FB08F1994204FA02F409D9FB1806F156
:1005F000FF3C80F08D80994240F28A80023E3B446D
:100600005B1A81B2B3FBFEF00EFB103341EA0341EB
:1006100000FB08F38B4207D9791800F1FF3C73D235
:100620008B4271D902383944CB1A40EA064678E742
:10063000C6F1200C03FA06F422FA0CF31C4320FA4C
:100640000CF701FA06F34FEA144E21FA0CF11F439E
:100650003B0CB1FBFEF91FFA84F80EFB191143EABB
:10066000014109FB08FA8A4502FA06F200FA06F38C
:1006700008D9611809F1FF3048D28A4546D9A9F155
:1006800002092144A1EB0A01BFB2B1FBFEF00EFB4F
:10069000101147EA014700FB08F8B84507D9E719E8
:1006A00000F1FF312ED2B8452CD90238274440EA58
:1006B0000940A7EB0807A0FB02894F45C6464946FB
:1006C0001AD317D05DB1B3EB0E0267EB010707FA3F
:1006D0000CFCF2404CEA0202F740C5E90027002674
:1006E0003146BDE8F0872E4628460BE70646E9E688
:1006F0001846FDE64345E5D2B8EB020E69EB04016E
:100700000138DFE70846D2E760468DE78146B9E762
:10071000664675E730464AE7ACF1020C394413E708
:1007200002383C4424E700BF704700BF08B50021F1
:10073000032000F039FE03E00021032000F034FE26
:100740004FF0FF310A4B186801F070F801210320C7
:1007500000F02AFE01F070FB044601F06DFB031B64
:1007600003EB83035B00B3F5FA6FF6D3E4E700BF56
:10077000D43F002008B5012402E00A2001F06AFC01
:100780002146022000F010FE84F00104064B1B7885
:10079000002BF2D00021044B19700B460A46034887
:1007A000006800F083FFE8E730000020D43F00201D
:1007B000012801D000BF704708B5062000F01CFDDD
:1007C000034B01221A70062000F008FD08BD00BF8F
:1007D0003000002072B6FEE700B595B0302200214F
:1007E00008A8FFF7D7FD002303930493059306930E
:1007F00007930193184A116C41F080511164126CF7
:1008000002F080520192019A0293144A116841F455
:1008100080411160126802F480420292029A012221
:1008200008924FF4803209920E9308A800F080F8E5
:1008300070B90F23039301230493002105910691BE
:10084000079103A800F0D6FA20B915B05DF804FBB3
:10085000FFF7C0FFFFF7BEFF003802400070004006
:1008600000B583B000F016FDFFF7B6FF00F048FDBD
:1008700003220021012000F0F5FE0C4A1060A0B117
:10088000002401940123009323468022084909484B
:1008900001F060FA01940223009323468022064966
:1008A000064801F057FA01F089FAFEE7D43F00202C
:1008B0009429000875070008A02900082D070008E2
:1008C000FEE7FEE7FEE7FEE7FEE7704708B500F04B
:1008D000FBFC01F0E3FC012800D108BD01F0E2FEC1
:1008E000FBE708B5012000F025FC08BD00B583B08A
:1008F000002200920D4B596C41F480415964596CAF
:1009000001F48041009100990192196C41F08051ED
:1009100019641B6C03F080530193019B0F216FF04E
:10092000010000F027FC03B05DF804FB0038024032
:10093000002800F0DF8170B582B00446036813F030
:10094000010F3BD0A64B9B6803F00C03042B2CD06B
:10095000A34B9B6803F00C03082B21D06368B3F50D
:10096000803F4FD0B3F5A02F52D09D4B1A6822F490
:1009700080321A601A6822F480221A606368002BA1
:1009800050D000F0ADFC0546954B1B6813F4003FBA
:1009900014D100F0A5FC401B6428F5D90320B0E178
:1009A0008F4B5B6813F4800FD8D08D4B1B6813F40A
:1009B000003F03D06368002B00F09E81236813F092
:1009C000020F54D0864B9B6813F00C0F3ED0844B23
:1009D0009B6803F00C03082B33D0E368002B67D02F
:1009E000804B01221A6000F07BFC05467C4B1B68A3
:1009F00013F0020F53D100F073FC401B0228F5D90D
:100A000003207EE1764A136843F480331360B5E730
:100A1000734B1A6842F480221A601A6842F48032DA
:100A20001A60ABE700F05CFC05466D4B1B6813F4E5
:100A3000003FC3D000F054FC401B6428F5D90320CC
:100A40005FE1674B5B6813F4800FC6D1644B1B6892
:100A500013F0020F03D0E368012B40F04F81604A8E
:100A6000136823F0F803216943EAC1031360236884
:100A700013F0080F40D0636963B35B4B01221A6027
:100A800000F02EFC0546564B5B6F13F0020F33D17E
:100A900000F026FC401B0228F5D9032031E1504A22
:100AA000136823F0F803216943EAC1031360DEE70A
:100AB0004C4B00221A6000F013FC0546484B1B68A3
:100AC00013F0020FD3D000F00BFC401B0228F5D925
:100AD000032016E1444B00221A6000F001FC054699
:100AE0003F4B5B6F13F0020F06D000F0F9FB401B89
:100AF0000228F5D9032004E1236813F0040F78D00D
:100B0000374B1B6C13F0805F0DD100230193344BE6
:100B10001A6C42F080521A641B6C03F080530193EC
:100B2000019B012500E00025304B1B6813F4807FFA
:100B300021D0A368012B32D0052B36D0284B1A6F59
:100B400022F001021A671A6F22F004021A67A368E2
:100B5000002B34D000F0C4FB0646214B1B6F13F072
:100B6000020F45D100F0BCFB801B41F28833984254
:100B7000F3D90320C5E01D4A136843F48073136062
:100B800000F0AEFB0646194B1B6813F4807FD0D1F2
:100B900000F0A6FB801B0228F5D90320B1E0104A23
:100BA000136F43F001031367D1E70D4B1A6F42F047
:100BB00004021A671A6F42F001021A67C7E700F0D1
:100BC0008FFB0646064B1B6F13F0020F10D000F090
:100BD00087FB801B41F288339842F3D9032090E0D1
:100BE0000038024000004742800E4742007000403B
:100BF000EDB9A369002B00F08380494A926802F0A6
:100C00000C02082A51D0022B17D0464B00221A6042
:100C100000F066FB0446424B1B6813F0007F42D095
:100C200000F05EFB001B0228F5D9032069E03C4A76
:100C3000136C23F080531364DBE73A4B00221A60F5
:100C400000F04EFB0546364B1B6813F0007F06D0C4
:100C500000F046FB401B0228F5D9032051E0E36970
:100C6000226A1343626A43EA8213A26A5208013A73
:100C700043EA0243E26A43EA0263294A5360294B8A
:100C800001221A6000F02CFB0446254B1B6813F070
:100C9000007F06D100F024FB001B0228F5D90320B9
:100CA0002FE000202DE000202BE0012B2BD01C4B4F
:100CB0005B6803F48001E269914226D103F03F02B0
:100CC000216A8A4223D1616A47F6C0721A40B2EBA8
:100CD000811F1ED103F44031A26A5208013AB1EBE0
:100CE000024F18D103F07063E26AB3EB026F14D1C4
:100CF000002006E001207047012002E0012000E012
:100D0000002002B070BD0120FBE70120F9E70120BF
:100D1000F7E70120F5E70120F3E70120F1E700BF45
:100D20000038024060004742F8B52F4B9B6803F043
:100D30000C03042B53D0082B53D12B4B5A6802F0D1
:100D40003F025B6813F4800F28D0274B5B68C3F326
:100D5000881358010021C01A61F100018E0146EA92
:100D6000906687013C1A66EB0105E90041EA54717F
:100D7000E000C01841F100014B0243EAD0534402A5
:100D8000204619460023FFF755FB174B5B68C3F35A
:100D9000014301335B00B0FBF3F023E0124B5B68CF
:100DA000C3F388135C010025E41A65F10005AE0168
:100DB00046EA9466A701381B66EB0501CC0044EABD
:100DC0005074C500E81844F100018B0243EA9053C7
:100DD0008402204619460023FFF72CFBD5E7034881
:100DE00000E00348F8BD00BF0038024000127A005E
:100DF0000024F400002800F09B8070B50D460446E6
:100E00004F4B1B6803F007038B4208D2CBB24C4A0E
:100E10001370136803F007038B4240F08B80236844
:100E200013F0020F17D013F0040F04D0454A936853
:100E300043F4E0539360236813F0080F04D0414A51
:100E4000936843F4604393603E4A936823F0F00351
:100E5000A1680B439360236813F0010F32D06368DD
:100E6000012B21D09A1E012A25D9364A126812F088
:100E7000020F61D033498A6822F0030213438B606A
:100E800000F02EFA06462F4B9B6803F00C036268B5
:100E9000B3EB820F16D000F023FA801B41F28833A7
:100EA0009842F0D9032042E0264A126812F4003F2B
:100EB000E0D101203BE0234A126812F0007FD9D133
:100EC000012034E01E4B1B6803F00703AB4207D937
:100ED000EAB21B4B1A701B6803F00703AB422DD11B
:100EE000236813F0040F06D0164A936823F4E053E6
:100EF000E1680B439360236813F0080F07D0114A91
:100F0000936823F46043216943EAC1039360FFF7C8
:100F10000BFF0C4B9B68C3F303130B4AD35CD84005
:100F20000A4B18600A4B186800F08EF9002070BD5B
:100F3000012070470120FAE70120F8E70120F6E7D9
:100F4000003C024000380240AC29000808000020A4
:100F50000400002000230F2B00F2DD80F0B482B0EB
:100F60005DE086685F000324BC4026EA0406CC6886
:100F7000BC4034438460466826EA02064C68C4F3E9
:100F800000129A403243426057E0DC08083450F8BF
:100F9000247003F0070296000F22B24027EA0207EE
:100FA0000A69B2403A4340F824205AE0072200E0A0
:100FB0000022B2403A430234574E46F82420574AA2
:100FC0009468EA4324EA05064F6817F4801F01D0AD
:100FD00045EA0406514CA660E46802EA04064F683C
:100FE00017F4001F01D045EA04064C4CE660646823
:100FF00002EA04064F6817F4003F01D045EA0406F0
:10100000464C6660246822404E6816F4803F01D04A
:1010100045EA0402414C226001330F2B78D80122AB
:101020009A400C6804EA020532EA0404F4D14C68E0
:1010300004F00304013C012C93D94A6802F0030236
:10104000032A09D0C4685E000322B24024EA0204E5
:101050008A68B2402243C2604A6802F00302022A50
:1010600093D004685E000322B24024EA02044A6876
:1010700002F00302B240224302604A6812F4403F89
:10108000CAD000220192264A546C44F4804454642D
:10109000526C02F480420192019A9C08A61C1E4ADE
:1010A00052F8267003F0030296000F22B24027EA9E
:1010B00002071C4A90423FF47BAF02F580629042E7
:1010C0001AD002F58062904218D002F580629042F8
:1010D00016D002F58062904214D002F580629042F0
:1010E00012D002F58062904210D002F580629042E8
:1010F0003FF45CAF08225CE701225AE7022258E77E
:10110000032256E7042254E7052252E7062250E75D
:1011100002B0F0BC7047704700380140003C01400D
:1011200000380240000002400AB1816170470904A2
:101130008161704708B5054B5B69034200D108BD6A
:10114000024B5861FFF734FBF9E700BF003C014058
:10115000074AD36823F4E0631B041B0C000200F46D
:10116000E060034343F0BF6343F40033D360704750
:1011700000ED00E030B4174BDB68C3F30223C3F18A
:101180000704042C28BF04241D1D062D18D9033B79
:101190004FF0FF3505FA04F421EA0401994005FAFD
:1011A00003F322EA0303194300280BDB0901C9B248
:1011B00000F1604000F5614080F8001330BC7047DA
:1011C0000023E5E700F00F000901C9B2024B1954F2
:1011D000F4E700BF00ED00E014ED00E0002807DBBD
:1011E00000F01F02400901239340024A42F82030D8
:1011F000704700BF00E100E000280CDB00F01F0298
:101200004009012393402030034A42F82030BFF3C5
:101210004F8FBFF36F8F704700E100E00138B0F1EE
:10122000807F0AD2064B5860064AF02182F82310CC
:101230000020986007221A6070470120704700BFA5
:1012400010E000E000ED00E010B504460E4B187809
:101250004FF47A73B3FBF0F30C4A1068B0FBF3F071
:10126000FFF7DCFF68B90F2C01D901200AE000224A
:1012700021464FF0FF30FFF77DFF054B1C6000203B
:1012800000E0012010BD00BF000000200800002089
:101290000400002008B50B4B1A6842F400721A6073
:1012A0001A6842F480621A601A6842F480721A6006
:1012B0000320FFF74DFF0F20FFF7C6FFFFF716FBD8
:1012C000002008BD003C0240034A1168034B1B7814
:1012D0000B441360704700BFD83F0020000000207F
:1012E000014B1868704700BFD83F0020034AD2F86E
:1012F000883043F47003C2F88830704700ED00E096
:1013000070B588B00024039404940594069407945F
:101310000094224B1A6B42F080021A631A6B02F09F
:1013200080020092009A01941A6B42F001021A6343
:101330001A6B02F001020192019A02941A6B42F0B8
:1013400008021A631B6B03F008030293029B144DFF
:1013500022464FF470412846FFF7E6FE0126039629
:101360004FF488130493059403A90E48FFF7F2FD88
:101370004FF470430393049605940323069303A943
:101380002846FFF7E7FD224605210620FFF7F2FE7B
:101390000620FFF723FF08B070BD00BF00380240F1
:1013A000000C02400000024008B5012914BF0022D1
:1013B00001220138032808D8DFE800F002080E14E3
:1013C0004FF400510A48FFF7AFFE08BD4FF48051BB
:1013D0000748FFF7A9FEF8E74FF480410448FFF7FC
:1013E000A3FEF2E74FF400410148FFF79DFEECE752
:1013F000000C0240034B0360034B0B60802313601F
:10140000704700BF340200203400002000F10803C0
:1014100043604FF0FF328260C360036100230360CA
:10142000704700230361704743684B609A688A6085
:10143000516099600861036801330360704730B4FC
:101440000D68B5F1FF3F11D000F108031C465B6841
:101450001A68AA42FAD963684B6099608C6061602F
:10146000086103680133036030BC70470469F2E728
:101470000369416882688A60416851605A688242A3
:1014800006D0002202611A68013A1A601868704793
:1014900082685A60F5E70346406A18B11B6B18680A
:1014A000C0F10700704710B5044601F08BF8A26B3D
:1014B000E36B9A4204D0002401F0A6F8204610BD48
:1014C0000124F9E710B5044601F07CF8A36B23B9B9
:1014D000012401F099F8204610BD0024F9E770B509
:1014E00004461546866B026C5AB903681BB100208E
:1014F0000136A66370BD806800F036FF0023A3604C
:10150000F6E76DB94068FEF7ABFE226C63681344E2
:101510006360A268934219D3236863602846E7E7B3
:10152000C068FEF79DFE226C5142E3689B1AE3609F
:101530002268934202D2A3680B44E360022D01D0DB
:101540000020D5E726B1013E0020D1E72846CFE7AD
:101550000020CDE738B5054601F034F895F8454050
:1015600064B203E000F094FE013C64B2002C08DD9C
:101570006B6A33B105F1240000F0F6FD0028F3D0CA
:10158000F0E7FF2385F8453001F03EF801F01AF846
:1015900095F8444064B203E000F07AFE013C64B286
:1015A000002C08DD2B6933B105F1100000F0DCFDE3
:1015B0000028F3D0F0E7FF2385F8443001F024F849
:1015C00038BD000038B5E0B10D46044600F0FAFF22
:1015D0002168E26B236C03FB0210A0600020A06373
:1015E0006160013A02FB0313E360FF2384F8443097
:1015F00084F84530EDB9236963B901F005F801209D
:1016000038BD4FF0500383F31188BFF36F8FBFF3E2
:101610004F8FFEE704F1100000F0A6FD0028ECD08B
:10162000084B4FF080521A60BFF34F8FBFF36F8F9C
:10163000E3E704F11000FFF7E9FE04F12400FFF7EF
:10164000E5FEDAE704ED00E010B5034602980C462B
:1016500031B90060C36304640121FFF7B3FF10BD1B
:101660000260F7E740B94FF0500383F31188BFF3EE
:101670006F8FBFF34F8FFEE7F0B583B00D46164670
:10168000074601FB00F0483001F0DCF8044650B199
:10169000002380F846300090334600F14802294686
:1016A0003846FFF7D1FF204603B0F0BDF0B585B056
:1016B000019288B10E461D460446B1B1022D20D1DB
:1016C000E36B012B1DD04FF0500383F31188BFF360
:1016D0006F8FBFF34F8FFEE74FF0500383F31188F6
:1016E000BFF36F8FBFF34F8FFEE7036C002BE5D086
:1016F0004FF0500383F31188BFF36F8FBFF34F8F09
:10170000FEE700F0CBFD074658B9019B002B44D003
:101710004FF0500383F31188BFF36F8FBFF34F8FE8
:10172000FEE7002739E02A4631462046FFF7D7FE7C
:10173000626A6AB938B13C4B4FF080521A60BFF30D
:101740004F8FBFF36F8F00F05FFF012005B0F0BD3A
:1017500004F1240000F008FD0028F4D0324B4FF0D3
:1017600080521A60BFF34F8FBFF36F8FEBE700F02B
:101770004BFF0020EAE702A800F03CFD012719E03A
:10178000002384F8443021E0002384F8453023E02E
:101790002046FFF7DFFE00F0E1FB00F013FFA26B35
:1017A000E36B9A42BFD3022DBDD0019B002BDED04C
:1017B000002FE0D000F028FF00F036FB00F002FF21
:1017C00094F844305BB2B3F1FF3FD9D094F8453080
:1017D0005BB2B3F1FF3FD7D000F016FF01A902A81A
:1017E00000F014FDC8B92046FFF75DFE0028CFD0F9
:1017F000019904F1100000F09FFC2046FFF7AAFEBB
:1018000000F0ACFB0028C8D1074B4FF080521A60A3
:10181000BFF34F8FBFF36F8FBFE72046FFF79AFEEE
:1018200000F09CFB002091E704ED00E070B584B06F
:10183000019158B10446036C8BB14FF0500383F310
:101840001188BFF36F8FBFF34F8FFEE74FF0500348
:1018500083F31188BFF36F8FBFF34F8FFEE700F064
:101860001DFD064650B9019B5BB14FF0500383F359
:101870001188BFF36F8FBFF34F8FFEE700252E4611
:1018800053E0054651E0013BA36323683BB1236964
:101890004BB900F0B9FE0125284604B070BD00F038
:1018A00019FEA060F3E704F1100000F05DFC0028D1
:1018B000EFD0464B4FF080521A60BFF34F8FBFF30B
:1018C0006F8FE6E745B14FF0500383F31188BFF304
:1018D0006F8FBFF34F8FFEE700F096FEDCE702A8A4
:1018E00000F088FC01262AE0002384F8443032E02E
:1018F000002384F8453034E000F064FEA06800F076
:10190000DDFC054600F080FE3BE02046FFF722FEAE
:1019100000F024FB09E02046FFF71CFE00F01EFB50
:101920002046FFF7CFFD002840D100F04BFEA36B0F
:10193000002BA8D1019B002BC4D0002ECFD000F0EB
:1019400063FE00F071FA00F03DFE94F844305BB2A3
:10195000B3F1FF3FC8D094F845305BB2B3F1FF3F1D
:10196000C6D000F051FE01A902A800F04FFC0028EB
:10197000D1D12046FFF7A6FD0028C6D02368002B52
:10198000BAD0019904F1240000F0D6FB2046FFF7FD
:10199000E1FD00F0E3FA0028C7D10C4B4FF0805274
:1019A0001A60BFF34F8FBFF36F8FBEE70DB90025ED
:1019B00072E700F007FE2046FFF76DFD0146A068C4
:1019C00000F02CFD00F020FEF1E700BF04ED00E088
:1019D000084B1B681B6823B9074B4FF0FF321A6096
:1019E0007047044B1B68DB68DB685A68024B1A605F
:1019F000704700BF8C0200205C0300202DE9F047F7
:101A000080469946089EDDF824A00A9C276B02F1C7
:101A10008042013A07EB820727F0070789B30D469A
:101A200000220F2A07D8A95CA31883F83410AB5CF6
:101A30000BB10132F5E7002384F84330062E00D9BC
:101A40000626E66266640025A564201DFFF7E9FC12
:101A500004F11800FFF7E5FC2461C6F10706A66152
:101A60006462E56484F850504A464146384600F0C6
:101A70007DFD2060BAF1000F01D0CAF80040BDE83A
:101A8000F087002384F83430D8E7000038B500240C
:101A900007E004EB840293000E481844FFF7B6FCFD
:101AA0000134062CF5D90C4D2846FFF7AFFC0B4C42
:101AB0002046FFF7ABFC0A48FFF7A8FC0948FFF7F0
:101AC000A5FC0948FFF7A2FC084B1D60084B1C60F1
:101AD00038BD00BF940200203403002048030020DA
:101AE0006803002094030020800300208C02002063
:101AF0009002002010B5044600F064FD204A1368EF
:101B0000013313601F4B1B685BB11F4B1B686BB924
:101B10001C4B1B68DA6AE36A9A4207D8194B1C60AF
:101B200004E0184B1C601368012B26D0174A136879
:101B300001331360E06A01238340154A11680B43A7
:101B4000136000EB8000211D124B03EB8000FFF7B8
:101B50006BFC00F059FD0C4B1B686BB1094B1B680B
:101B6000DA6AE36A9A4207D20B4B4FF080521A604E
:101B7000BFF34F8FBFF36F8F10BDFFF787FFD5E720
:101B800020030020880200207C0300202C0300207A
:101B9000300300209402002004ED00E010B504465C
:101BA00090F8513063B1012B11D0022B0ED04FF0C1
:101BB000500383F31188BFF36F8FBFF34F8FFEE79E
:101BC000006B00F091FE204600F08EFE10BD00F08C
:101BD0008BFEFBE70F4B1B68D3B110B500F0F2FC96
:101BE0000D4BDB68DC68201DFFF742FC0B4A1368D5
:101BF000013B1360074A1368013B136000F004FDCA
:101C00002046FFF7CBFF034B1B68002BE6D110BD2E
:101C1000704700BF2403002094030020200300200D
:101C200008B5FFF7D7FF064B1B68012BF9D9054B09
:101C30004FF080521A60BFF34F8FBFF36F8FF0E702
:101C40009402002004ED00E070B504460D461D4BE3
:101C50001E681D4B18680430FFF70AFC50B91A4B78
:101C60001B68DA6A012303FA02F218490B6823EAB7
:101C700002030B60B4F1FF3F0DD03444124B1B68DC
:101C80005C60A64210D9124B18680F4B19680431DA
:101C9000FFF7D5FB70BD002DEFD00B4B1968043159
:101CA0000C48FFF7C1FBF5E70B4B1868064B1968AA
:101CB0000431FFF7C4FB094B1B68A342EAD9074B69
:101CC0001C60E7E7A8030020880200203003002002
:101CD00090020020800300208C0200205C03002082
:101CE00070B586B00B9D0C9C75B1B4B154260496AA
:101CF000049E542E1AD04FF0500383F31188BFF383
:101D00006F8FBFF34F8FFEE74FF0500383F31188BF
:101D1000BFF36F8FBFF34F8FFEE74FF0500383F396
:101D20001188BFF36F8FBFF34F8FFEE7049E2563CB
:101D3000022584F8515000250395029405AD0195C4
:101D40000A9D0095FFF75AFE2046FFF7D3FE05983F
:101D500006B070BD2DE9F04385B0074688461446AD
:101D60001E46900000F06EFD00B38146542000F046
:101D700069FD0546B0B1C0F83090E5B1002385F8A3
:101D80005130039302950D9B01930C9B00933346B6
:101D9000224641463846FFF731FE2846FFF7AAFEA5
:101DA000012005E0484600F09FFDE6E74FF0FF30D8
:101DB00005B0BDE8F0834FF0FF30F9E710B588B00B
:101DC00000240594069407AA06A905A8FFF712FBAC
:101DD000059B0293069B019300942346079A0D49A5
:101DE0000D48FFF77DFF90B14FF0500383F311884A
:101DF000BFF36F8FBFF34F8F084B4FF0FF321A6066
:101E0000074B01221A60074B1C6000F07DFC08B0F4
:101E100010BD00BFBC290008211C00085C03002085
:101E20007C030020A8030020024A136801331360DA
:101E3000704700BF28030020014B1868704700BF9F
:101E4000A8030020F8B53A4B1B68002B69D1394B29
:101E50001D6801351D60C5B9374B1B681B6843B150
:101E60004FF0500383F31188BFF36F8FBFF34F8F91
:101E7000FEE7314A1168314B186810601960304A2A
:101E8000136801331360FFF7A3FD2E4B1B68AB42B1
:101E90003DD900242C4B1B68DB6A03EB83039A00BB
:101EA0002A4B9B58012B00D90124294B1B68002B7E
:101EB0003CD001243AE001241F4B1B681B6843B34C
:101EC0001D4B1B68DB68DE6873689D4226D3371D97
:101ED0003846FFF7CDFAB36A1BB106F11800FFF7D9
:101EE000C7FAF36A01229A401A49086802430A6055
:101EF00003EB83039A00394614481044FFF794FA21
:101F0000F26A114B1B68DB6A9A42D4D2D4E70024F0
:101F1000D2E70C4B4FF0FF321A60BBE7094A13605F
:101F2000B8E70D4A13680133136000242046F8BD5A
:101F300028030020A80300208C020020900200202B
:101F4000600300205C03002088020020940200202F
:101F5000AC030020300300206403002038B5344B6C
:101F60001B6843B94FF0500383F31188BFF36F8FA1
:101F7000BFF34F8FFEE700F025FB2D4B1A68013AA7
:101F80001A601B68002B4DD12A4B1B680BB900242B
:101F900049E00024284B1B681BB3274BDB68DC6837
:101FA00004F11800FFF764FA251D2846FFF760FAD0
:101FB000E06A01238340214A11680B43136000EB60
:101FC000800029461E4B03EB8000FFF72DFAE26AE2
:101FD0001C4B1B68DB6A9A42DCD31B4B01221A6044
:101FE000D8E70CB1FFF7F4FC184B1C6874B9164B1A
:101FF0001C68C4B1164B4FF080521A60BFF34F8F6C
:10200000BFF36F8F01240EE0013C07D0FFF71AFFEA
:102010000028F9D00C4B01221A60F5E70B4B002287
:102020001A60E4E7002400F0EFFA204638BD00BF54
:102030002803002020030020680300203003002034
:102040009402002088020020AC03002064030020DA
:1020500004ED00E010B5A8B104460F4B1B6843B176
:102060004FF0500383F31188BFF36F8FBFF34F8F8F
:10207000FEE7FFF7D9FE00212046FFF7E5FDFFF759
:102080006DFF38B9054B4FF080521A60BFF34F8F88
:10209000BFF36F8F10BD00BF2803002004ED00E0E8
:1020A000204B1B681BB1204B01221A6070471E4B4E
:1020B00000221A601D4B1B68B3FA83F3DBB2C3F135
:1020C0001F0303EB83018A0019498A5842B94FF074
:1020D000500383F31188BFF36F8FBFF34F8FFEE779
:1020E00010B4134903EB830082000A44506840682F
:1020F000506003EB8304A200144608321144884266
:102100000BD003EB83039A00094B13445B68DA6836
:10211000084B1A605DF8044B70474068044A22443B
:102120005060EEE728030020AC03002030030020BD
:10213000940200208802002058B110B50C46094BCB
:1021400019681831FFF77BF901212046FFF77CFD64
:1021500010BD4FF0500383F31188BFF36F8FBFF3AF
:102160004F8FFEE78802002038B5C368DC6824B3CF
:1021700004F118052846FFF77BF9184B1B682BBBA9
:10218000251D2846FFF774F9E06A01238340144AAD
:1021900011680B43136000EB80002946114B03EBE1
:1021A0008000FFF741F9E26A0F4B1B68DB6A9A4235
:1021B00011D901200D4B18600EE04FF0500383F34E
:1021C0001188BFF36F8FBFF34F8FFEE72946084892
:1021D000FFF72AF9E7E7002038BD00BF28030020F9
:1021E000300300209402002088020020AC0300206D
:1021F00068030020034B1B680360034B1B684360AC
:10220000704700BF60030020A8030020F8B5C8B1E4
:102210000C460546F9B100F0D5F91B4B19686B68FF
:10222000C81A2268B2F1FF3F26D02F68174E3668D1
:10223000B74201D08B4224D9824215D800232360B3
:1022400001241AE04FF0500383F31188BFF36F8F1E
:10225000BFF34F8FFEE74FF0500383F31188BFF3B6
:102260006F8FBFF34F8FFEE75B1A1344236028463E
:10227000FFF7C0FF002400E0002400F0C5F920466D
:10228000F8BD0124F9E700BFA80300206003002087
:10229000014B01221A607047AC030020054B1B68FC
:1022A00033B1054B1B680BB100207047022070470B
:1022B000012070477C03002028030020002849D01B
:1022C00038B50446C36A254A1268D26A934239D2A5
:1022D0008269002A05DB214A1268D26AC2F107022C
:1022E0008261616903EB83031D4A02EB8303994218
:1022F00005D01A4B1B68DB6AE362012038BD251D3F
:102300002846FFF7B5F840B9E26A012303FA02F262
:1023100014490B6823EA02030B60104B1B68D86A50
:10232000E062012404FA00F30E4A11680B431360C3
:1023300000EB800029460A4B03EB8000FFF774F89E
:102340002046DBE7426C054B1B68DB6A9A4203D3ED
:102350000020D3E7002070470120CFE7880200204B
:10236000940200203003002000284CD038B50446E9
:10237000274B1B68834208D04FF0500383F311882A
:10238000BFF36F8FBFF34F8FFEE7836C43B94FF0FE
:10239000500383F31188BFF36F8FBFF34F8FFEE7B6
:1023A000013B8364C16A426C91422ED00BB1002084
:1023B00038BD051D2846FFF75BF870B9E26A02EBED
:1023C00082039B001349CB583BB9012303FA02F265
:1023D00011490B6823EA02030B60606CE062C0F1F4
:1023E0000703A361012404FA00F30B4A11680B43AD
:1023F000136000EB80002946064B03EB8000FFF7DB
:1024000013F82046D4E7002070470020D0E700BF33
:10241000880200209402002030030020002851D0C0
:1024200038B50A460446816C41B94FF0500383F336
:102430001188BFF36F8FBFF34F8FFEE7436C93425A
:1024400000D21346E26A9A4201D0012900D038BD79
:102450001D490968A1422CD0E362A169002902DB71
:10246000C3F10703A361616902EB8202174B03EB1F
:1024700082029142EBD1251D2846FEF7F9FF40B9B3
:10248000E26A012303FA02F211490B6823EA02030C
:102490000B60E06A012383400D4A11680B4313600F
:1024A00000EB80002946094B03EB8000FEF7BCFFE0
:1024B000CDE74FF0500383F31188BFF36F8FBFF365
:1024C0004F8FFEE7704700BF880200209402002073
:1024D00030030020054B1B6823B1044B1A68936C32
:1024E00001339364014B1868704700BF88020020D5
:1024F00082B0002301930D4B1B68B3F1FF3F08D05E
:102500004FF0500383F31188BFF36F8FBFF34F8FEA
:10251000FEE74FF0500383F31188BFF36F8FBFF3D3
:102520004F8F019B002BFCD002B070470C000020A5
:1025300008480068006880F308884FF0000080F3C6
:10254000148862B661B6BFF34F8FBFF36F8F00DFA1
:1025500000BF000008ED00E0DFF80C00016841F466
:10256000700101607047000088ED00E04FF080735B
:1025700040F8043C21F0010140F8081C054B40F8EC
:102580000C3C40F8202C6FF0020340F8243C443807
:10259000704700BFF12400080000000000000000A8
:1025A000074B19680868B0E8F04F80F30988BFF35B
:1025B0006F8F4FF0000080F311887047AFF30080F9
:1025C000880200204FF0500383F31188BFF36F8F10
:1025D000BFF34F8F0A4A136801331360012B00D0F9
:1025E0007047084B1B6813F0FF0FF9D04FF05003F2
:1025F00083F31188BFF36F8FBFF34F8FFEE700BFE8
:102600000C00002004ED00E0094B1B6843B94FF0BB
:10261000500383F31188BFF36F8FBFF34F8FFEE733
:10262000013B034A13600BB983F31188704700BF65
:102630000C0000200000000000000000000000006E
:10264000EFF30980BFF36F8F154B1A681EF0100F60
:1026500008BF20ED108A20E9F04F10602DE9090035
:102660004FF0500080F31188BFF34F8FBFF36F8F8F
:10267000FFF716FD4FF0000080F3118809BC1968C0
:102680000868B0E8F04F1EF0100F08BFB0EC108AD9
:1026900080F30988BFF36F8F704700BFAFF30080EE
:1026A0008802002008B54FF0500383F31188BFF370
:1026B0006F8FBFF34F8FFFF7C5FB18B1034B4FF080
:1026C00080521A60002383F3118808BD04ED00E0F6
:1026D000084A0023136008490B60084B1B6808492F
:1026E000A1FB03135B09013B06490B600723136041
:1026F000704700BF10E000E018E000E00800002094
:102700001F85EB5114E000E03A4B1A683A4B9A42AD
:1027100029D0384B1A68394B9A422DD010B582B067
:10272000374B1A78D2B20192FF221A701B78DBB2B3
:102730008DF803309DF8033003F05003314A1370D5
:10274000314B07221A609DF8033013F0800F1CD024
:102750002D4A1368013B13609DF803305B00DBB228
:102760008DF80330EFE74FF0500383F31188BFF388
:102770006F8FBFF34F8FFEE74FF0500383F3118845
:10278000BFF36F8FBFF34F8FFEE71F4B1B68032B09
:1027900008D04FF0500383F31188BFF36F8FBFF35E
:1027A0004F8FFEE71B0203F4E063174A1360019B9F
:1027B000DBB2134A1370154B1A6842F470021A60A8
:1027C0001A6842F070421A60FFF782FF0024104B33
:1027D0001C60FFF7C1FE0F4A136843F040431360CB
:1027E000FFF7A6FEFFF75CFCFFF782FE204602B073
:1027F00010BD00BF00ED00E071C20F4170C20F417B
:1028000000E400E0B0030020B403002020ED00E06D
:102810000C00002034EF00E0074B23F00703074AC9
:10282000136000205060064A43F6F8315160106092
:1028300059601A60704700BFC0030020C43F0020E9
:10284000B83F002070B50446FFF7EEFA224B1B6834
:102850007BB134B1083414F0070F02D024F0070420
:102860000834621E43F6F6339A4230D81B490B688F
:1028700007E0FFF7D1FF184B01221A60E9E719467C
:1028800013465A68A24202D21A68002AF7D1144AA3
:1028900093421ED00D6808351A680A605A68121BE8
:1028A000102A0BD91E1972605C6074680B4A1046BE
:1028B00012685168A142FAD3326006605968094A29
:1028C00013685B1A1360FFF749FB284670BD0025AB
:1028D000F9E70025F7E700BFC03F0020C43F002014
:1028E000B83F002010000020C8B138B50446A0F160
:1028F0000805FFF799FA54F8040C094B19461B68B0
:102900005A688242FAD344F8083C0D6054F8041C1B
:10291000044A13680B441360FFF720FB38BD70476F
:10292000C43F002010000020DFF834D00D480E49CD
:102930000E4A002302E0D458C4500433C4188C4219
:10294000F9D30B4A0B4C002301E013600432A2427E
:10295000FBD3FEF7CBFCFDF75FFCFDF781FF704773
:10296000000002200000002014000020D4290008EC
:1029700014000020DC3F0020FEE70000F8B500BF97
:10298000F8BC08BC9E467047F8B500BFF8BC08BC50
:042990009E467047A8
:102994005461736B206C6F77000000005461736B9B
:1029A4002068696768000000000000000000000063
:1029B400010203040607080949444C4500000000CD
:0829C400A0DAFF7F0100000012
:0429CC00F901000805
:0429D000D101000829
:1029D40001000000100000000024F400AAAAAAAA22
:0429E400F83B0000BC
:04000005080029299D
:00000001FF
